:020000040800F2
:10000000F00600208D010008B90700084907000824
:10001000B5070008BF0500087B13000800000000BA
:10002000000000000000000000000000C1090008FE
:10003000C30500080000000061080008E70B000885
:10004000A7010008A7010008A7010008A7010008F0
:10005000A7010008A7010008A7010008A7010008E0
:10006000A7010008A7010008A7010008A7010008D0
:10007000A7010008A7010008A7010008A7010008C0
:10008000A7010008A7010008A7010008A7010008B0
:10009000A7010008A7010008A7010008A7010008A0
:1000A000A7010008A7010008A7010008A701000890
:1000B000A7010008A7010008A7010008A701000880
:1000C000A7010008A7010008A7010008A701000870
:1000D000A701000899110008A7010008A70100085E
:1000E000C5050008A7010008A701000800F002F8F4
:1000F00000F03CF80AA090E8000C82448344AAF186
:100100000107DA4501D100F031F8AFF2090EBAE883
:100110000F0013F0010F18BFFB1A43F0010318473B
:1001200088160000A8160000103A24BF78C878C1CD
:10013000FAD8520724BF30C830C144BF04680C60ED
:10014000704700000023002400250026103A28BF35
:1001500078C1FBD8520728BF30C148BF0B60704739
:10016000002070471FB51FBD10B510BD00F0F4F999
:100170001146FFF7F7FF01F069F900F012FA03B436
:10018000FFF7F2FF03BC01F0FAF8000009488047CE
:1001900009480047FEE7FEE7FEE7FEE7FEE7FEE769
:1001A000FEE7FEE7FEE7FEE704480549054A064B81
:1001B00070470000450C0008ED000008F00000202A
:1001C000F0060020F0020020F0020020704700003E
:1001D0000FB4044910B503AA029800F0F5F810BC5A
:1001E0005DF814FB180000202DE9F0410E4604468E
:1001F000002020622046E168884730B3252805D0DA
:10020000D4E901219047206A401CF2E7E1682046CA
:1002100000278847050018D0A5F14100192802D809
:1002200020354FF400673246294620462760FFF705
:1002300097FF40B1012804D0F61D26F007060836C6
:10024000D8E7361DD6E72846DAE7206ABDE8F08110
:10025000014A00F0CBB800003C00002040EA010356
:1002600070B59B072ED14FF00136042A2AD308C857
:1002700010C99D1B9D43121F15EAC61517D0D8B291
:10028000E1B2401A50EA056110D198B2A1B2401A09
:1002900050EA05410AD123F07F4024F07F41401A03
:1002A00050EA052102D1180EA0EB146070BDA342E4
:1002B000DBD018BA21BA884201D9012070BD4FF0B5
:1002C000FF3070BD0AB9002070BD10F8013B11F875
:1002D000014B63B1A3420AD1521E08D010F8013B72
:1002E00011F8014B1BB1A34201D1521EEDD1181BD5
:1002F00070BD032A40F2308010F0030C00F015802E
:1003000011F8013BBCF1020F624498BF11F801CB18
:1003100000F8013B38BF11F8013BA2F1040298BF7D
:1003200000F801CB38BF00F8013B11F0030300F0E7
:100330007F80083AC0F0088051F8043B083A51F831
:1003400004CBA0E80810F5E7121D5CBF51F8043B90
:1003500040F8043BAFF30080D20724BF11F8013B03
:1003600011F801CB48BF11F8012B24BF00F8013B65
:1003700000F801CB48BF00F8012B70474FF0000296
:100380000429C0F0128010F0030C00F08580CCF13D
:10039000040CBCF1020F18BF00F8012BA8BF20F815
:1003A000022BA1EB0C0100F077B85FEAC17C24BFFF
:1003B00000F8012B00F8012B48BF00F8012B704713
:1003C0007047704770477047074B70B50D467B44C8
:1003D00000F08DF80446284600F09CF810B14FF06C
:1003E000FF3070BD204670BD5F1000002DE9F04168
:1003F00015460E46040002D12C6804B90BA4204611
:1004000000F09CF80444207870B127463146384605
:1004100000F084F80444207810B1002004F8010BA7
:1004200038462C60BDE8F0810027F9E700000000A5
:1004300010B5203AC0F00B80B1E81850203AA0E87F
:100440001850B1E81850A0E81850BFF4F5AF5FEAB3
:10045000027C24BFB1E81850A0E8185044BF18C966
:1004600018C0BDE810405FEA827C24BF51F8043B0D
:1004700040F8043B08BF7047D20728BF31F8023B61
:1004800048BF11F8012B28BF20F8023B48BF00F8F5
:10049000012B70474FF0000200B513469446964674
:1004A000203922BFA0E80C50A0E80C50B1F1200187
:1004B000BFF4F7AF090728BFA0E80C5048BF0CC035
:1004C0005DF804EB890028BF40F8042B08BF704793
:1004D00048BF20F8022B11F0804F18BF00F8012B05
:1004E0007047000001694A1C02610878704700B536
:1004F0008FB0CDE901310021059105497944CDE95D
:10050000031011466846FFF76FFE0FB000BD0000F4
:10051000E5FFFFFF007B00F08000704730B5034629
:100520001D781DB10A4603E0AC4201D1181A30BD56
:1005300012F8014B002CF7D15B1CF1E730B50346F4
:100540001D783DB10A4612F8014B1CB1AC42FAD1FC
:100550005B1CF5E7181A30BD754600F02BF8AE4667
:1005600005006946534620F00700854618B020B5BF
:10057000FFF71AFEBDE820404FF000064FF00007DD
:100580004FF000084FF0000B21F00701AC46ACE83B
:10059000C009ACE8C009ACE8C009ACE8C0098D46A8
:1005A000704710B50446AFF300802046BDE8104008
:1005B000FFF7E5BD0048704790000020704700BF7E
:1005C000FEE7704710B54FF4006000F019F80128FD
:1005D00004D1C00200F00EF800F026F84FF480506D
:1005E00000F00EF8012804D1000300F003F8FFF733
:1005F000E5FF10BD01490860704700001404014088
:10060000014600200022074B1B6803EA0102054B4C
:1006100014331B680B4013B10AB1012000E0002025
:10062000704700000004014070472DE9F041024688
:1006300000250026002000230024002791F803C095
:100640000CF00F0591F803C00CF0100CBCF1000F7A
:1006500003D091F802C04CEA050591F800C0BCF146
:10066000000F31D0146800202BE04FF0010C0CFA81
:1006700000F3B1F800C00CEA03069E4220D18300CB
:100680004FF00F0C0CFA03F7BC4305FA03FC4CEADD
:10069000040491F803C0BCF1280F06D14FF0010CFF
:1006A0000CFA00FCC2F814C00AE091F803C0BCF1D7
:1006B000480F05D14FF0010C0CFA00FCC2F810C035
:1006C000401C0828D1D31460B1F800C0BCF1FF0F62
:1006D00034DD546800202EE000F1080C4FF00108D2
:1006E00008FA0CF3B1F800C00CEA03069E4221D1CF
:1006F00083004FF00F0C0CFA03F7BC4305FA03FC20
:100700004CEA040491F803C0BCF1280F05D100F1B4
:10071000080C08FA0CF8C2F8148091F803C0BCF178
:10072000480F07D100F1080C4FF0010808FA0CF847
:10073000C2F81080401C0828CED35460BDE8F08178
:10074000416170470161704700BFFEE710B5F021BD
:10075000054800F074FC4FF4FA7000F013FE9E217F
:10076000014800F06CFC10BD0008004010B59E214F
:100770000E4800F064FC41F2883240F2DC510C4833
:1007800000F0D2F9F021094800F059FC4FF4FA705A
:1007900000F0F8FD9E21054800F051FC41F288323E
:1007A00040F2DC51024800F0A0F910BD0008004002
:1007B0004000002000BFFEE77047000070B5002138
:1007C00000230F22C47804B3154C246804F4E064B9
:1007D000C4F5E064210AC1F10403CA40447804FA74
:1007E00003F184781440214309010E4C0678A15589
:1007F000047804F01F050124AC4005786D11AD00AC
:1008000005F1E025C5F8004109E0047804F01F0572
:100810000124AC40044D0678761145F8264070BDA1
:100820000CED00E000E400E080E100E0024901435B
:10083000024A1160704700000000FA050CED00E06C
:1008400010B54621054800F0FAFB4FF4FA7000F0AD
:1008500099FD9E21014800F0F2FB10BD0008004008
:100860007047000029B1064AD2690243044BDA619D
:1008700004E0034AD2698243014BDA617047000009
:100880000010024029B1064A92690243044B9A6162
:1008900004E0034A92698243014B9A617047000069
:1008A0000010024030B500210022002400232D4D0D
:1008B0006D6805F00C0121B1042905D0082923D168
:1008C00005E0294D056022E0274D05601FE0254D1C
:1008D0006D6805F47012234D6D6805F480340225AF
:1008E00005EB92421CB9214D554305600BE01D4DAF
:1008F0006D6805F400351DB11C4D5543056002E0DF
:10090000194D5543056002E0174D056000BF00BF5B
:10091000144D6D6805F0F0010909154D6B5C056813
:10092000DD4045600F4D6D6805F4E061090A104D2A
:100930006B5C4568DD4085600A4D6D6805F460516B
:10094000C90A0B4D6B5C4568DD40C560054D6D689F
:1009500005F44041890B074D6B5CC568B5FBF3F5A9
:10096000056130BD0010024000127A0000093D0010
:10097000280000203800002010B59E210E4800F00D
:100980005EFB41F2883240F2DC510C4800F0CCF8BA
:100990004621094800F053FB4FF4FA7000F0F2FCD6
:1009A0009E21054800F04BFB41F2883240F2DC51B9
:1009B000024800F09AF810BD0008004040000020F6
:1009C000704710B500F002F810BD00000CB5002013
:1009D000019000903348006840F48030314908604D
:1009E00000BF3048006800F4003000900198401CBF
:1009F0000190009818B90198B0F5A06FF1D129487D
:100A0000006800F4003010B10120009001E00020E7
:100A100000900098012843D12348006840F010005E
:100A2000214908600846006820F003000860084675
:100A3000006840F0020008601A48406819494860A0
:100A40000846406848600846406840F48060486056
:100A50000846406820F47C1048600846406840F42E
:100A6000E81048600846006840F08070086000BFE9
:100A70000C48006800F000700028F9D00948406870
:100A800020F00300074948600846406840F0020033
:100A9000486000BF0348406800F00C000828F9D106
:100AA0000CBD0000001002400020024010B586B0CE
:100AB0004FF48040094B42101946009002A800F004
:100AC00052F8074802A91EC91EC09E21054800F021
:100AD000B6FA00F009F806B010BD000000100140A1
:100AE000400000200008004070472DE9F041044616
:100AF0000D461646A1882068FFF722FE00270FE06A
:100B0000A189A068FFF71EFE304600F04DFCA189C8
:100B1000A068FFF715FE304600F046FC781C87B24F
:100B2000AF42EDDBBDE8F0812DE9F04104460D4612
:100B30001646A1882068FFF705FE00270FE0A1896F
:100B4000A068FFF7FFFD304600F02EFCA189A068E9
:100B5000FFF7F6FD304600F027FC781C87B2AF4265
:100B6000EDDBBDE8F0812DE9F04186B007460C468B
:100B700015461E46DDF8308001211420FFF782FE65
:100B800010208DF8170003208DF81600ADF81450D2
:100B900005A92046FFF749FDADF8148005A93046A8
:100BA000FFF743FD0194ADF808500396ADF81080AF
:100BB00001A80FC887E80F0006B0BDE8F08104283F
:100BC00008D14FF0E021096941F004014FF0E02223
:100BD000116107E04FF0E021096921F004014FF0B5
:100BE000E0221161704710B500F05CF810BD000004
:100BF00008B54FF4A060FFF719FEFF208DF8000044
:100C000000208DF801008DF8020001208DF803000E
:100C10006846FFF7D3FD6FF00400FFF7D0FF0848E8
:100C200000684FF4FA51B0FBF1F04FF0E021486159
:100C3000002088610846006940F00300086108BD93
:100C40000000002010B51348006840F00100114971
:100C5000086008464068104908400E494860084648
:100C600000680E4908400B4908600846006820F4F7
:100C7000802008600846406820F4FE0048604FF479
:100C80001F008860FFF79DFE4FF000600449086078
:100C900010BD0000001002400000FFF8FFFFF6FE4C
:100CA00008ED00E00448D0E900305A1C40F1000093
:100CB0000149C1E9002070472000002030B589B00B
:100CC00005460C4601210420FFF7CCFD0121082038
:100CD000FFF7D8FD18208DF8230003208DF822009F
:100CE0004FF47070ADF8200008A91F48FFF79DFC75
:100CF000ADF81850ADF814400020ADF81A00ADF86A
:100D0000160005A9194800F09DF97020ADF80400FF
:100D10000120ADF806000220ADF80C0001A913482F
:100D200000F032F80821114800F07AF801A90F48C4
:100D300000F080F808210D4800F0CEF801A90B481A
:100D400000F0D8F80821094800F024F901A9074863
:100D500000F02AF90821054800F064F90121034850
:100D600000F006F809B030BD000C0140000800405A
:100D700021B1028842F00102028004E002884FF6AD
:100D8000FE731A400280704770B5002400220023D1
:100D9000058C4FF6FE7635400584028C8388048BE3
:100DA0004FF68F752C40B51E2C400D882C43751EB8
:100DB0002A400D892A434D882A43144DA8420BD05E
:100DC000134DA84208D0134DA84205D0124DA84299
:100DD00002D0124DA84213D14FF6F7752A404D8923
:100DE0002A434FF6FB752A408D882A434FF6FF654C
:100DF0002B404FF6FF552B408D892B43CD892B433C
:100E000083800483CD888586028470BD002C0140D8
:100E100000340140004001400044014000480140CE
:100E20000A460021018B4FF6F773194011430183E5
:100E30007047000070B5002400220023058C4FF697
:100E4000EF7635400584028C8388048B48F6FF7565
:100E50002C404FF6FF452C400D884FF6FF7606EAF2
:100E600005252C434FF6DF752A400D8906EA051546
:100E70002A434D8806EA05152A43154DA84202D09B
:100E8000144DA8421DD14FF67F752A404D894FF66B
:100E9000FF7606EA05152A434FF6BF752A408D886E
:100EA00006EA05152A434FF6FF352B404FF2FF7532
:100EB0002B408D8906EA85052B43CD8906EA8505F9
:100EC0002B4383800483CD880587028470BD000096
:100ED000002C0140003401400A460021018B4FF2F2
:100EE000FF7319404FF6FF7303EA0223194301838E
:100EF0007047000070B5002400220023058C4FF6D7
:100F0000FF6635400584028C8388848B4FF68F758D
:100F10002C404FF6FC752C400D882C434FF6FF55A6
:100F20002A400D894FF6FF7606EA05252A434D88AB
:100F300006EA05252A43154DA84202D0144DA842C1
:100F40001DD14FF2FF752A404D894FF6FF7606EA14
:100F500005252A434FF6FF352A408D8806EA0525E8
:100F60002A434EF6FF752B404DF6FF752B408D89B9
:100F700006EA05152B43CD8906EA05152B43838028
:100F80008483CD888587028470BD0000002C0140D9
:100F9000003401400A460021818B4FF6F773194057
:100FA000114381837047000070B5002200230024A4
:100FB000058C4EF6FF7635400584038C8488828B41
:100FC00048F6FF752A404FF6FF452A400D884FF638
:100FD000FF7606EA05252A434DF6FF752B400D895D
:100FE00006EA05352B434D8806EA05352B430B4DA4
:100FF000A84202D00A4DA84208D14BF6FF752C40FA
:101000008D894FF6FF7606EA85152C43848082830E
:10101000CD88A0F84050038470BD0000002C014032
:10102000003401400A460021818B4FF2FF731940C2
:101030004FF6FF7303EA02231943818370478186C9
:1010400070470000002202881D4B98420ED01D4BB5
:1010500098420BD0B0F1804F08D01B4B984205D07E
:101060001A4B984202D01A4B984204D14FF68F7314
:101070001A404B881A43174B984207D0164B984298
:1010800004D04FF6FF431A40CB881A4302808B8866
:1010900083850B8803850A4B98420BD0094B9842F5
:1010A00008D00E4B984205D00D4B984202D00D4B04
:1010B000984201D10B7A0386012383827047000096
:1010C000002C0140003401400004004000080040B2
:1010D000000C00400010004000140040004001409F
:1010E000004401400048014010B5264800F040F996
:1010F000C4B22548008800F40040002841D12248AD
:10110000008800F48040F0B10A2C03D000201E4972
:10111000088036E01C48008840F400401A490880E6
:1011200020221A491A48FFF7E4F817480088C0F34C
:101130000D001849088020211448FFF71FF90020EE
:10114000114908801DE00D2C06D10F48008840F49D
:1011500080400D49088014E00B480088C0F30D0062
:101160000A490C5408480088401C07490880084672
:1011700000881F2805DD0020088020210348FFF794
:10118000FDF810BD00380140140000205000002080
:10119000700000201600002010B540F225510348D1
:1011A00000F02AF808B1FFF79FFF10BD003801409A
:1011B00070B504460848008858B1202207492046E7
:1011C000FFF797F80448058800200349088028465F
:1011D00070BD0020FCE70000160000207000002019
:1011E00021B1828942F40052828104E082894DF665
:1011F000FF731A408281704770B5024600240023B5
:101200000025002040F66A16B14200D100BFC1F3AC
:10121000421501F01F03012606FA03F3012D02D146
:101220009689334006E0022D02D1168A334001E050
:10123000968A33400C12012606FA04F416883440CC
:1012400013B10CB1012000E0002070BDF0B50346E1
:10125000002400260025002040F66A17B94200D17C
:1012600000BF1846C1F3421401F01F06012707FA18
:1012700006F5012C01D10C3004E0022C01D1103014
:1012800000E014301AB107682F43076002E00768D6
:10129000AF430760F0BD00002DE9F04786B005467A
:1012A0000E460024A24600BFA1460027B08900B127
:1012B00000BF2F462C8A4CF6FF700440F088044390
:1012C0002C82AC894EF6F3100440B0883189084373
:1012D000718908430443AC81AC8A4FF6FF40044057
:1012E000B0890443AC8201A8FFF7DCFA1F488742AB
:1012F00002D1DDF810A001E0DDF80CA0A88900F40F
:10130000004040B10AEBCA0000EB0A103168490006
:10131000B0FBF1F807E00AEBCA0000EB0A103168F5
:101320008900B0FBF1F86420B8FBF0F0040120095B
:10133000642101FB1089A88900F4004040B13220EB
:1013400000EBC900B0FBF1F000F00700044308E037
:10135000322000EB09106421B0FBF1F000F00F0027
:1013600004432C8106B0BDE8F0870000003801403E
:1013700001468888C0F30800704700BFFEE700BF41
:101380007047000030B5074B06CB00BF054BD3E9D3
:101390000043651A63EB02032D1A73F10003F5D3C2
:1013A00030BD0000200000202DE9F0431E4B1B68DB
:1013B0004FF4FA54B3FBF4F400231C4D4FF47A7C41
:1013C000C0CDA6FB0C5907FB0C9706FB03776619EB
:1013D0007B414FF0E024A469311B63F1000200BFA0
:1013E000114B1B684FF4FA54B3FBF4F300240F4D78
:1013F000D5E900754FF47A7CA7FB0C6905FB0C95C9
:1014000007FB04559E196C414FF0E0239B69F31ACA
:1014100064F100045D1A64EB02042D1A74F10004F7
:10142000DED3BDE8F0830000000000202000002093
:1014300000BF054A128802F04002002AF9D0C2B269
:10144000014B1B1D1A8070470038014088B0FFF720
:10145000CFFB4FF4E13000F055F940F2CF2140F2DC
:10146000CF70FFF72BFCFFF721FBC8E06846FFF7C2
:101470009FFE0746002F6EDD002461A16846FEF73F
:10148000E7FE0446002C67D006225EA12046FEF748
:10149000E5FE00286CD1002559A1FEF7D9FE0546CE
:1014A000002D64D0042259A12846FEF7D7FED0B9FA
:1014B000002653A10020FEF7CBFE064696B104227B
:1014C00054A13046FEF7CAFE18B954A0FEF780FEBC
:1014D00008E0052257A13046FEF7C0FE10B957A01C
:1014E000FEF776FE43E005225AA12846FEF7B6FE37
:1014F000D0B9002642A10020FEF7AAFE064696B10A
:10150000042244A13046FEF7A9FE18B953A0FEF705
:101510005FFE08E0052247A13046FEF79FFE10B9A6
:1015200054A0FEF755FE22E0062258A12846FEF7F9
:1015300095FEE0B9002632A10020FEF789FE06469E
:10154000A6B1042233A13046FEF788FE28B951A087
:10155000FEF73EFE0AE051E04FE0052235A130469D
:10156000FEF77CFE10B951A0FEF732FE00BF44E04A
:10157000082254A12046FEF771FE00283DD0062225
:1015800053A12046FEF76AFE002836D100251CA193
:10159000FEF75EFE0546002D2ED007224EA12846FE
:1015A000FEF75CFE28B9FFF7E7F94DA0FEF710FE45
:1015B00022E007224DA12846FEF750FE28B9FFF78A
:1015C000D5F847A0FEF704FE16E0072249A12846F9
:1015D000FEF744FE28B9FFF7B9F841A0FEF7F8FD81
:1015E0000AE0052245A12846FEF738FE20B9FFF79C
:1015F00027F93BA0FEF7ECFD00BF00BF00BF35E7B9
:101600003A000000426166666C6500004C656674D5
:10161000000000004F70656E0000000042616666C9
:101620006C653A4C6566743A4F70656E65640D0A78
:1016300000000000436C6F73650000004261666645
:101640006C653A4C6566743A436C6F7365640D0A59
:10165000000000005269676874000000426166661D
:101660006C653A52696768743A4F70656E65640DCF
:101670000A000000426166666C653A5269676874E8
:101680003A436C6F7365640D0A0000004D69646431
:101690006C650000426166666C653A4D6964646C15
:1016A000653A4F70656E65640D0A000042616666BA
:1016B0006C653A4D6964646C653A436C6F7365643C
:1016C0000D0A0000436F6E7665796F7200000000AE
:1016D000536C69646572000052656379636C6500E0
:1016E000536C696465723A4F4B0D0A004B69746321
:1016F00068656E004861726D66756C004F74686550
:101700007200000010B586B00446012144F20400C6
:10171000FFF7B8F84FF40070ADF8140003208DF80F
:10172000160018208DF8170005A91D48FEF77DFF4B
:101730004FF48060ADF8140004208DF8170005A95F
:101740001748FEF772FF25208DF8000000208DF865
:10175000010003208DF8020001208DF80300684687
:10176000FFF72CF801940020ADF80800ADF80A004E
:10177000ADF80C00ADF810000C20ADF80E0001A97A
:101780000848FFF789FD012240F225510548FFF77F
:101790005DFD01210348FFF723FD06B010BD0000E9
:1017A0000008014000380140C81700080000002070
:1017B0004000000028010008081800084000002030
:1017C000B00600004401000800A24A040000000026
:1017D00000000000010203040607080900000000E1
:1017E00000000000000000000000000000000000F9
:1017F00000000000010203040102030406070809B7
:081800000204060800000000CC
:04000005080000ED02
:00000001FF
