:020000040800F2
:10000000700600208D010008310400082904000852
:100010002D040008E9030008A10500080000000005
:10002000000000000000000000000000350400088F
:10003000ED0300080000000033040008210500085B
:10004000A7010008A7010008A7010008A7010008F0
:10005000A7010008A7010008A7010008A7010008E0
:10006000A7010008A7010008F1030008A701000884
:10007000A7010008A7010008A7010008A7010008C0
:10008000A7010008A7010008A7010008A7010008B0
:10009000A7010008A7010008A7010008A7010008A0
:1000A000A7010008A7010008A7010008A701000890
:1000B000A7010008A7010008A7010008A701000880
:1000C000A7010008A7010008A7010008A701000870
:1000D000A7010008A7010008A7010008A701000860
:1000E000A7010008A7010008A701000800F002F816
:1000F00000F03CF80AA090E8000C82448344AAF186
:100100000107DA4501D100F031F8AFF2090EBAE883
:100110000F0013F0010F18BFFB1A43F0010318473B
:10012000CC040000EC040000103A24BF78C878C169
:10013000FAD8520724BF30C830C144BF04680C60ED
:10014000704700000023002400250026103A28BF35
:1001500078C1FBD8520728BF30C148BF0B60704739
:10016000002070471FB51FBD10B510BD00F00EF97F
:100170001146FFF7F7FF00F02DFA00F02CF903B459
:10018000FFF7F2FF03BC00F014FA000009488047B3
:1001900009480047FEE7FEE7FEE7FEE7FEE7FEE769
:1001A000FEE7FEE7FEE7FEE704480549054A064B81
:1001B0007047000029050008ED00000870000020CD
:1001C00070060020700200207002002070470000BE
:1001D0000FB4044910B503AA029800F0A5F810BCAA
:1001E0005DF814FB000000202DE9F05F894604460D
:1001F0004FF0000ADFF824B1FB44C0F820A02046ED
:10020000E168884700287DD0252806D0D4E901215F
:100210009047206A401C2062F1E700255F46204697
:10022000E16888472028064607DB312E05D2B81939
:1002300010F8200C08B10543F1E7A80701D525F017
:100240000405C4F81CA00027C4F818A02A2E09D061
:10025000304600F0A7F938B304EB8708303EC8F801
:10026000186019E059F8041B204604EB87029161DD
:10027000E1688847012F064618D1E069002820DA96
:1002800025F020051DE0D8F8180000EB800006EBF3
:1002900040003038C8F818002046E1688847064614
:1002A00000F080F90028EED1012F0AD02E2E08D1BF
:1002B0002046E16888477F1C0646022F45F020054E
:1002C000C4DBA069002803DA404245F00105A061C3
:1002D000E80701D025F01005A6B1A6F141001928C4
:1002E00002D8203645F400654A463146204625604E
:1002F0004D46FFF735FF60B1012807D0ED1D25F011
:10030000070000E007E000F1080978E705F10409BB
:1003100075E730467AE7206ABDE8F09FDC0300000D
:100320007047704770477047074B70B50D467B4468
:1003300000F011F80446284600F020F810B14FF004
:10034000FF3070BD204670BD8702000001694A1C65
:1003500002610878704700B58FB0CDE90131002106
:10036000059105497944CDE9031011466846FFF728
:100370003BFF0FB000BD0000E5FFFFFF007B00F07A
:100380008000704700487047100000207546FFF756
:10039000F9FFAE4605006946534620F00700854642
:1003A00018B020B5FFF700FFBDE820404FF0000671
:1003B0004FF000074FF000084FF0000B21F007014D
:1003C000AC46ACE8C009ACE8C009ACE8C009ACE890
:1003D000C0098D46704710B50446AFF30080204633
:1003E000BDE81040FFF7CBBE00BFFEE7704700003E
:1003F00010B503A0FFF7ECFE102000F00FF810BDC1
:10040000544F4620526169736564207468652069A1
:100410006E746572727570740D0A0000014908608F
:10042000704700001404014000BFFEE700BFFEE774
:1004300070477047704710B500F002F810BD00001B
:100440000CB50020019000903348006840F48030E3
:100450003149086000BF3048006800F40030009067
:100460000198401C0190009818B90198B0F5A06F50
:10047000F1D12948006800F4003010B1012000904B
:1004800001E0002000900098012843D12348006833
:1004900040F01000214908600846006820F0030081
:1004A00008600846006840F0020008601A4840688A
:1004B000194948600846406848600846406840F46A
:1004C000806048600846406820F47C104860084618
:1004D000406840F4E81048600846006840F08070CA
:1004E000086000BF0C48006800F000700028F9D0D8
:1004F0000948406820F00300074948600846406802
:1005000040F00200486000BF0348406800F00C0063
:100510000828F9D10CBD0000001002400020024064
:1005200010B500F031F810BD10B51348006840F068
:1005300001001149086008464068104908400E490A
:100540004860084600680E4908400B4908600846A4
:10055000006820F4802008600846406820F4FE000F
:1005600048604FF41F008860FFF765FF4FF00060A0
:100570000449086010BD0000001002400000FFF8B0
:10058000FFFFF6FE08ED00E00448D0E900305A1CF9
:1005900040F100000149C1E9002070470800002037
:1005A00000BFFEE730380A2801D201207047002042
:1005B000704700BF7047000000BF054A128802F074
:1005C0004002002AF9D0C2B2014B1B1D1A807047AD
:1005D0000038014000BFFEE70400000800000000F2
:1005E0000000000200010000100000000C060008DE
:1005F0000000002010000000280100081C06000870
:100600001000002060060000440100080000000007
:0C061000000000000000000000000000DE
:04000005080000ED02
:00000001FF
