:020000040800F2
:1000000018070020A1010008711600080116000859
:100010006D16000849140008AB2400080000000019
:100020000000000000000000000000007918000837
:10003000CF14000800000000411700086B1B0008E7
:10004000BB010008BB010008BB010008BB010008A0
:10005000BB010008BB010008BB010008BB01000890
:10006000BB010008BB010008BB010008BB01000880
:10007000BB010008BB010008BB010008BB01000870
:10008000BB010008BB010008BB010008BB01000860
:10009000BB010008BB010008BB010008BB01000850
:1000A000BB010008BB010008BB010008BB01000840
:1000B000BB010008C11C0008BB010008BB0100080F
:1000C000BB010008BB010008BB010008BB01000820
:1000D000BB010008C9220008BB010008BB010008E1
:1000E000BB010008BB010008BB01000800F002F8DA
:1000F00000F047F80AA090E8000C82448344AAF17B
:100100000107DA4501D100F03CF8AFF2090EBAE878
:100110000F0013F0010F18BFFB1A43F0010318473B
:100120007C2C00009C2C0000103A24BF78C878C1B9
:10013000FAD8520724BF30C830C144BF04680C60ED
:10014000704700000023002400250026103A28BF35
:1001500078C1FBD8520728BF30C148BF0B60704739
:10016000662902F0C385002070471FB500F0FCFB34
:1001700004000020002102F0F7FBE0601FBD10B575
:1001800010BD00F02BFD1146FFF7EFFF02F00AFA59
:1001900000F049FD03B4FFF7F2FF03BC02F09BF946
:1001A0000948804709480047FEE7FEE7FEE7FEE70B
:1001B000FEE7FEE7FEE7FEE7FEE7FEE70448054947
:1001C000054A064B70470000C91B0008ED000008F7
:1001D0001801002018070020180300201803002031
:1001E000704700000FB4044910B503AA029800F04C
:1001F0002DFB10BC5DF814FB400000202DE9F04100
:100200000F460546002028622846E968884770B3F3
:10021000252805D0D5E901219047286A401CF2E73E
:10022000E9682846002688476C2804460AD0682CCE
:1002300008D04C2C35D06A2C31D0742C31D07A2C8B
:100240002FD016E0E968064628468847B0420446A3
:1002500008D16C2E23D04FF480662846E968884781
:10026000044606E06C2E03D04FF4807601E01EE0D9
:100270004026E4B1A4F14100192802D8203446F404
:1002800000663A46214628462E60FFF769FF60B1B6
:10029000012808D0FF1D27F007070837B4E780269C
:1002A000DBE70026D9E73F1DAEE72046B2E7286A24
:1002B000BDE8F081014A00F0DBBA000064000020D4
:1002C00040EA010370B59B072ED14FF00136042A96
:1002D0002AD308C810C99D1B9D43121F15EAC615D5
:1002E00017D0D8B2E1B2401A50EA056110D198B2E5
:1002F000A1B2401A50EA05410AD123F07F4024F010
:100300007F41401A50EA052102D1180EA0EB14607B
:1003100070BDA342DBD018BA21BA884201D90120AE
:1003200070BD4FF0FF3070BD0AB9002070BD10F8ED
:10033000013B11F8014B63B1A3420AD1521E08D010
:1003400010F8013B11F8014B1BB1A34201D1521E21
:10035000EDD1181B70BD032A40F2308010F0030C61
:1003600000F0158011F8013BBCF1020F624498BF08
:1003700011F801CB00F8013B38BF11F8013BA2F1A5
:10038000040298BF00F801CB38BF00F8013B11F020
:10039000030300F08F82083AC0F0088051F8043B54
:1003A000083A51F804CBA0E80810F5E7121D5CBF2D
:1003B00051F8043B40F8043BAFF30080D20724BF60
:1003C00011F8013B11F801CB48BF11F8012B24BFF4
:1003D00000F8013B00F801CB48BF00F8012B704743
:1003E0004FF000020429C0F0128010F0030C00F05E
:1003F0009582CCF1040CBCF1020F18BF00F8012B60
:10040000A8BF20F8022BA1EB0C0100F087BA5FEA2D
:10041000C17C24BF00F8012B00F8012B48BF00F875
:10042000012B7047704770477047704770472DE940
:10043000FF4F0C461E464FF0FF378BB0D2E900014C
:10044000DDF860800A908A46C1F30A5505B93D4639
:10045000002108464FF00000BAF1000F00F4400000
:1004600005DA00EB80004FF4400101EA50004FEA4A
:100470009059B9F1010F00DDB9460A9850EA4A00D7
:100480000ED044F61050A5F2FF3545432F14B8F1B5
:10049000000F1ED07542291E1EDDC9F100021CE0AE
:1004A000B8F1010F4FF0000001D0302103E0F2431A
:1004B00005E02154401CB042FBDB30460022002105
:1004C00021540B99C1F80880C1E900200FB0BDE8A4
:1004D000F08FBD1B6D1CDEE74A4600DA694206A8B4
:1004E00000F0E4FA06AB93E8070003AB83E80700EB
:1004F00050460A9900F0E0FB8DE80700A0F5005097
:100500001F3800900398002D0ADD42F21F014A4671
:100510000844002303A90390684600F049FE09E05F
:10052000A0F500504A461F38002303A903906846EF
:1005300000F053FE8DE807000004000C03D04FF0DC
:10054000FF30410800E01046B8F1000F03D0002250
:10055000009215461EE0751E05D400F009FA3032EF
:1005600062556D1EF9D5B3460122084302D0002220
:100570007F1C04E02078302801D100227F1E002A51
:10058000099784D01DE0112D07DA00F0F1F930321F
:1005900062556D1C50EA0102F5D1084302D0009863
:1005A000C8B10EE00021681E05E0235C625C635464
:1005B0002254401E491C8142F7DBAB46A81B401E5B
:1005C0000990002004F80B000B98099AC0F80880E5
:1005D000C0E9002B7AE711264FF0000857E72DE914
:1005E000F04F88460446D21D22F0070191B0D1E9B0
:1005F0000001CDE90A0101F05AFF02460B98C00F35
:1006000001D02D2007E02068810701D52B2002E0D2
:10061000202101EAC000032A099001D0072A05DB46
:1006200003464146204600F001FA0BE1207880069F
:1006300001D5E06900E00620B8F1650F814606D0DB
:10064000B8F1660F18D0B8F1670F70D131E0002013
:10065000B9F1110F009001DB112301E009F1010351
:100660000AAA01A90CA8FFF7E2FEDDE90C7000263A
:1006700009F10105834647E001204B4600904FF009
:1006800000470AAA01A90CA8FFF7D1FEDDE90DB0C9
:100690000C995D46002610B909F101000D18B9EB5F
:1006A000050003D4C0F1FF3609F10105A5EB0900EF
:1006B0002BE0B9F1010F01DA4FF001090020B9F187
:1006C000110F0090484601DD112300E003460AAAFD
:1006D00001A90CA8FFF7ABFEDDE90C704D46002622
:1006E0008346207800070AD4AB4500DA5D4601A8AE
:1006F000012D04DD411911F8011C302907D04F45A7
:1007000002DA17F1040F04DA012082460FE06D1EB1
:10071000EEE7002F02DCED1B3E4403E0781CA8420C
:1007200000DD7D1CB81B00F1010A4FF00047207866
:10073000000703D4AA4501DB4FF0FF3A0021B7F1CF
:10074000004F0DF143088DF8431024D002202B23D5
:10075000002F01DA7F422D230A21021EA0F10100A1
:1007600000DC5FB197FBF1FC97FBF1F201FB1C7C15
:1007700017460CF1300C08F801CDEEE7A8F10100A6
:1007800003702188090501D5452100E06521A0F10C
:10079000010800F8011C09980FA9A1EB0807FF1D2B
:1007A00000B10120411901EBEA70A1693844081A2F
:1007B000401EA0612078C00602D42046AFF300801E
:1007C000099828B1D4E901219047206A401C206291
:1007D0002078C00622D52046AFF300801EE0002E10
:1007E00004DBB34502DD01A8805D00E03020D4E9E0
:1007F00001219047206A401C2062761CAAF101006A
:100800005FEA000A0AD100F0AFF8C0680168405CF6
:10081000D4E901219047206A401C2062281EA5F1DE
:100820000105DCDC07E0D4E9012118F8010B904751
:10083000206A401C2062381EA7F10107F3DC204625
:10084000AFF30080032011B041E60000074B70B504
:100850000D467B4400F0D7F80446284600F098F98E
:1008600010B14FF0FF3070BD204670BD331D000049
:100870002DE9F04115460E46040002D12C6804B95A
:100880000BA4204600F098F90444207870B1274664
:100890003146384600F080F90444207810B1002039
:1008A00004F8010B38462C60BDE8F0810027F9E719
:1008B0000000000010B5203AC0F00B80B1E81850DD
:1008C000203AA0E81850B1E81850A0E81850BFF43A
:1008D000F5AF5FEA027C24BFB1E81850A0E81850D9
:1008E00044BF18C918C0BDE810405FEA827C24BF2D
:1008F00051F8043B40F8043B08BF7047D20728BFBB
:1009000031F8023B48BF11F8012B28BF20F8023B09
:1009100048BF00F8012B70474FF0000200B51346A6
:1009200094469646203922BFA0E80C50A0E80C500F
:10093000B1F12001BFF4F7AF090728BFA0E80C50C0
:1009400048BF0CC05DF804EB890028BF40F8042BB9
:1009500008BF704748BF20F8022B11F0804F18BF26
:1009600000F8012B7047000000487047D8000020B5
:1009700030B5B0F10A024FEA900E71F100034EEA71
:10098000817EB0EB0E0061EB91014FEA101E4EEA42
:10099000017E10EB0E0041EB11114FEA102E4EEAD2
:1009A000016E10EB0E0041EB11214FEA104E4EEAA2
:1009B000014E10EB0E0041EB1141401841F10001D6
:1009C0004FEAD00040EA41704FEAD10110EB8005B8
:1009D0004FEA810444EA907444EB01046D1944EB3E
:1009E0000404521BA3414FF0000348BF0A3200D554
:1009F00030BD401C41F1000130BD000001694A1CBE
:100A000002610878704700B58FB0CDE9013100214F
:100A1000059105497944CDE9031011466846FFF771
:100A2000EDFB0FB000BD0000E5FFFFFF2DE9F04139
:100A30001F46044603260168072A01F4006004DB10
:100A400008B116A505E016A503E008B115A500E05C
:100A500015A521F010002060A069C01EA0610FB193
:100A6000401EA0612046AFF300804FB1D4E90121C0
:100A700038469047206A401C2062C01C206206E075
:100A8000206AFAE7D4E9012115F8010B9047761E98
:100A9000F8D22046AFF30080BDE8F0814E414E0011
:100AA0006E616E00494E4600696E66002DE9F047A2
:100AB000814616468AB0354878440DC88DE80D0049
:100AC00032487844801C03AC0DC884E80D0041F620
:100AD0009B300844372190FBF1F290FBF1F5A5F132
:100AE000800501FB12041B3C02D56442012000E09A
:100AF0000020DFF898A080460027FA44AAF1BE0A39
:100B00000EE0E0070AD03246684607EB47010123B2
:100B10000AEB810100F061FB8DE8070064107F1C87
:100B2000002CEED1194F7F44AE3F19E0E80715D0F5
:100B300007EB04100DF1180A90E80E008AE80E0089
:100B4000C068F04201D1981908903246012306A9E5
:100B500003A800F042FB03AB83E807006D10641CA0
:100B6000002DE3D14FF0010332466946B8F1000F82
:100B700003A802D000F01CFB01E000F02EFBC9E945
:100B80000001C9F808200AB0BDE8F087B0220000D3
:100B9000007B00F08000704730B503461D781DB122
:100BA0000A4603E0AC4201D1181A30BD12F8014BDD
:100BB000002CF7D15B1CF1E730B503461D783DB141
:100BC0000A4612F8014B1CB1AC42FAD15B1CF5E7A6
:100BD000181A30BD00487047B80000207546FFF76E
:100BE000F9FFAE4605006946534620F007008546EA
:100BF00018B020B5FFF7E2FABDE820404FF000063C
:100C00004FF000074FF000084FF0000B21F00701F4
:100C1000AC46ACE8C009ACE8C009ACE8C009ACE837
:100C2000C0098D46704710B50446AFF300802046DA
:100C3000BDE81040FFF7AEBA4FF0013C50F8042B6E
:100C400051F8043B9A4221D1A2EB0C03934313EADF
:100C5000CC1317D150F8042B51F8043B9A4215D10C
:100C6000A2EB0C03934313EACC130BD150F8042BE3
:100C700051F8043B9A4209D1A2EB0C03934313EAC7
:100C8000CC13DBD04FF00000704700BFD01A01BA80
:100C9000B1FA81F101F0180122FA01F0CB40C1F163
:100CA0002001DBB2C0B2C01A2CFA01F3D11A914371
:100CB00011EAC311E6D170475FEA400C08BF91F01A
:100CC000000F4FEA8C234FEAC12243EA51514FEA09
:100CD0001C5018BF00F5F0404FEA300018BF41F03B
:100CE00000415FEA6C5C00F02980BCF1FF3F08BF67
:100CF00040F080407047130C06BF12044FF0100CF8
:100D00004FF0000C130E04BF12020CF1080C130F6D
:100D100004BF12010CF1040C930F04BF92000CF1FC
:100D2000020CD30F04BF52000CF1010C11464FF01E
:100D30000002A0F11F00A0EB0C00704711F0004F63
:100D400008BF704731F000413FF4D5AF0B0C06BF30
:100D500009044FF0100C4FF0000C0B0E04BF0902F9
:100D60000CF1080C0B0F04BF09010CF1040C8B0FE4
:100D700004BF89000CF1020CCB0F04BF49000CF139
:100D8000010CCCF12003A0EB0C0022FA03F302FAD1
:100D90000CF241EA030100F10100704720F07F4CA2
:100DA00080EA030023F07F47ACEB070303F57C5395
:100DB00000F0004003F1FF032DE980494FEA154B95
:100DC00009B44FEA144325EA0B4E24EA03480FF214
:100DD000042606EB132749083E785FEA320203FB3C
:100DE0000667C7F5000707FB06F64FEA54374FEAD8
:100DF000D64606F1020607FB066CCCF1005C4FEA12
:100E00001C472CEA074C07FB06F40CFB06F504EB29
:100E100015464FEA961634BF00204FF000404FEAC7
:100E2000D13706FB07FC4FEA1C4C0CFB0BF7D21B1F
:100E300003FB0CF761EB07010CFB0EF7B0EB07406F
:100E400072EB17420CFB08F734BFA2EB0742B2EB80
:100E5000074261EB17414FEA0C444FEA910706FB4A
:100E600007FC4FEA1C4C0CFB0BF7B0EBC74072EBD6
:100E7000573203FB0CF734BFA2EBC742B2EBC742B9
:100E800061EB57310CFB0EF7B0EBC70072EB5772FA
:100E90000CFB08F734BFA2EBC702B2EBC70261EB51
:100EA0005771039F4FEA816141EA921104EBCC0430
:100EB0004FEAD1374FEA826206FB07FC42EA901202
:100EC0004FEA80604FEA1C4C0CFB0BF7D21B03FB74
:100ED0000CF761EB07010CFB0EF7B0EB074072EB70
:100EE00017420CFB08F734BFA2EB0742B2EB0742F4
:100EF00061EB17414FEA8C554FEA910704EB9C24B4
:100F000006FB07FC4FEA1C4C0CFB0BF7B0EBC74091
:100F100072EB573203FB0CF734BFA2EBC742B2EBC4
:100F2000C74261EB57310CFB0EF7B0EBC70072EB19
:100F300057720CFB08F734BFA2EBC702B2EBC70233
:100F400061EB577115EB4C254FEA816141EA921133
:100F50004FEA82624FEAD13742EA901206FB07FC61
:100F600044F100044FEA80604FEA1C4C0CFB0BF785
:100F7000D21B03FB0CF761EB07010CFB0EF7B0EB88
:100F8000074072EB17420CFB08F734BFA2EB074295
:100F9000B2EB074261EB174115EB1C154FEA8131AB
:100FA00041EA92414FEA823242EA90424FEA80306F
:100FB0004FEA0C7644F1000448EA03434EEA0B483A
:100FC0004FF0000EB2EB080C71EB030724BF624632
:100FD00039464EEB0E0E4FF0000B001852414941BE
:100FE0004BEB0B0BB2EB080C71EB03077BF1000B27
:100FF00024BF624639464EEB0E0E4FF0000B001830
:10100000524149414BEB0B0BB2EB080C71EB030760
:101010007BF1000B24BF624639464EEB0E0E51EABF
:10102000020718BF46F0010616EB0E7655F10002D6
:1010300054F1000103D5BDE88901BDE80088BDE891
:101040008901BDE80048B619524141EB0101A3F105
:101050000103704780807F7E7D7C7B7A797877760C
:1010600076757473727171706F6E6E6D6C6C6B6A85
:101070006A69686867666665646463636261616023
:10108000605F5F5E5E5D5D5C5C5B5B5A5A595958A0
:10109000585757565655555554545353525252510A
:1010A000515050504F4F4F4E4E4D4D4D4C4C4C4B60
:1010B0004B4B4A4A4A4949494848484747474746A7
:1010C00046464545454444444443434343424242E3
:1010D00042414141002B9C4630D477002BD01CB5B7
:1010E0004FEA370703B44FF010004FF01001BAF188
:1010F000000F06D0BCF1000FDCBF40F0080040F04C
:1011000008014FF000000FBCBDE810400BF1010BCF
:10111000BBF1010F08BF5FEA170722BF12F10102FE
:1011200011F101014FF0004143F1000300F00040D4
:1011300043EA00007047F9D35708D0E746EA06466D
:1011400013F1400F4FEA16461FDD13F1200FDFBFEA
:1011500016430A46002120335B42BED0C3F120076C
:1011600046EA064602FA07F74FEA164646EA070637
:10117000C3F1200722FA03F201FA07F721FA03F17B
:101180004FF0000342EA0702A7E746EA020646EAF2
:1011900006464FEA164646EA0106BCBF46EA064640
:1011A000360C4FF000034FF000024FF0000194E7BF
:1011B0002DE9804C9A46934670B491E8380007C8F0
:1011C00031EA400C48BF34EA430C03D5FFF7E6FD93
:1011D000FFF780FFF0BCBDE8008C2DE9804C9A46FB
:1011E000934670B491E8380007C810F0804F08BFEC
:1011F00013F0804F03D100F005F8FFF76BFFF0BC50
:10120000BDE8008C20F07F4780EA030023F07F4C8C
:1012100007EB0C03A3F57C5300F00040A3F1FE03A1
:1012200092F0000F00F0B38095F0000F00F077808F
:101230002DE901494FEA11404FEA144621EA0048DE
:1012400000FB06FC24EA064708FB06F607FB08F845
:1012500000FB07F718EB06484CEB164C4FEA124B15
:1012600018EB07484FEA15464CEB174022EA0B4EA5
:101270000BFB06FC25EA06470EFB06F607FB0EFEF7
:101280000BFB07F71EEB064E4CEB164C4FF000061F
:101290001EEB074E4CEB174B18EB0B0840F1000010
:1012A00018EB0E0B58EB000840F100008F1A4FF0BE
:1012B00000013CBFC943661B14BFB5EB040C002101
:1012C0003CBFC943F61B4FEA17444EEA8E0E27EA8D
:1012D00004454FEA1C4704FB07622CEA074C05FB58
:1012E00007F70CFB05F604FB0CFC16EB074642EB7C
:1012F000174216EB0C4642EB1C421BEB060658EB62
:101300000202414146EA9E0601D5BDE80189B619AF
:10131000524141EB0101A3F10103BDE801894FEA0C
:1013200014454FEA114724EA054621EA074C05FB1C
:1013300007F406FB07F70CFB06F105FB0CFC11EBB1
:10134000074144EB17444FEA124711EB0C4144EBC1
:101350001C4422EA074C05FB07F206FB07F70CFBCF
:1013600006F605FB0CFC16EB074642EB174216EBA4
:101370000C4642EB1C456A1854F1000148BF704707
:10138000B619524141EB0101A3F10103704795F0F9
:10139000000F37D04FEA11424FEA144721EA0246C4
:1013A00024EA074C02FB07F106FB07F70CFB06F4E7
:1013B00002FB0CFC14EB074441EB17414FEA1547C5
:1013C00014EB0C4441EB1C4125EA074C02FB07F5EA
:1013D00006FB07F70CFB06F602FB0CFC16EB0746B8
:1013E00045EB174516EB0C4645EB1C42121951F123
:1013F000000148BF7047B619524141EB0101A3F10A
:10140000010370474FEA14454FEA114724EA0546A5
:1014100021EA074C05FB07F106FB07F70CFB06F278
:101420004FF0000605FB0CFC12EB074241EB1741A5
:1014300012EB0C4251EB1C4148BF7047921841EB34
:101440000101A3F10103704700BFFEE710B542F6AA
:10145000DF6144F24F6000F043FC10BD10B500F0B6
:101460000DFA4FF4B471C80600F04BFE10BD10B574
:1014700000F00CFA4FF4B471C80600F042FE10BD43
:1014800008B5632140F2CF2000F0DAFB00214FF0D5
:10149000804000F036FE0121042000F063F91020A6
:1014A0008DF8030003208DF802000120ADF8000044
:1014B0006946024800F00CF808BD00000008014031
:1014C00010B500214FF0804000F01BFE10BD7047AA
:1014D0002DE9F041024600250026002000230024CB
:1014E000002791F803C00CF00F0591F803C00CF031
:1014F000100CBCF1000F03D091F802C04CEA0505B6
:1015000091F800C0BCF1000F31D0146800202BE02E
:101510004FF0010C0CFA00F3B1F800C00CEA03061E
:101520009E4220D183004FF00F0C0CFA03F7BC430E
:1015300005FA03FC4CEA040491F803C0BCF1280F3F
:1015400006D14FF0010C0CFA00FCC2F814C00AE0FE
:1015500091F803C0BCF1480F05D14FF0010C0CFA13
:1015600000FCC2F810C0401C0828D1D31460B1F8A8
:1015700000C0BCF1FF0F34DD546800202EE000F104
:10158000080C4FF0010808FA0CF3B1F800C00CEA9F
:1015900003069E4221D183004FF00F0C0CFA03F793
:1015A000BC4305FA03FC4CEA040491F803C0BCF107
:1015B000280F05D100F1080C08FA0CF8C2F81480C5
:1015C00091F803C0BCF1480F07D100F1080C4FF0AF
:1015D000010808FA0CF8C2F81080401C0828CED385
:1015E0005460BDE8F0810246002093680B400BB1C7
:1015F000012000E0002070474161704701617047A1
:1016000000BFFEE710B56421054800F078FD4FF4F7
:101610007A7000F063FFA021014800F070FD10BD5A
:101620000008004010B5A0210E4800F068FD41F20E
:10163000883240F2DC510C4800F026FADC210948DF
:1016400000F05DFD4FF47A7000F048FFA0210548DE
:1016500000F055FD41F2883240F2DC51024800F0C2
:10166000EDF910BD000800406800002000BFFEE753
:101670007047000070B5002100230F22C47804B326
:10168000154C246804F4E064C4F5E064210AC1F157
:101690000403CA40447804FA03F1847814402143D7
:1016A00009010E4C0678A155047804F01F050124A9
:1016B000AC4005786D11AD0005F1E025C5F800419D
:1016C00009E0047804F01F050124AC40044D0678BD
:1016D000761145F8264070BD0CED00E000E400E016
:1016E00080E100E002490143024A116070470000B6
:1016F0000000FA050CED00E010B5A0210E4800F046
:10170000FEFC41F2883240F2DC510C4800F0BCF99A
:101710006421094800F0F3FC4FF47A7000F0DEFE1B
:10172000A021054800F0EBFC41F2883240F2DC5188
:10173000024800F083F910BD000800406800002056
:101740007047000029B1064AD2690243044BDA61AE
:1017500004E0034AD2698243014BDA61704700001A
:101760000010024029B1064A92690243044B9A6173
:1017700004E0034A92698243014B9A61704700007A
:101780000010024030B500210022002400232D4D1E
:101790006D6805F00C0121B1042905D0082923D179
:1017A00005E0294D056022E0274D05601FE0254D2D
:1017B0006D6805F47012234D6D6805F480340225C0
:1017C00005EB92421CB9214D554305600BE01D4DC0
:1017D0006D6805F400351DB11C4D5543056002E0F0
:1017E000194D5543056002E0174D056000BF00BF6D
:1017F000144D6D6805F0F0010909154D6B5C056825
:10180000DD4045600F4D6D6805F4E061090A104D3B
:101810006B5C4568DD4085600A4D6D6805F460517C
:10182000C90A0B4D6B5C4568DD40C560054D6D68B0
:1018300005F44041890B074D6B5CC568B5FBF3F5BA
:10184000056130BD0010024000127A0000093D0021
:10185000500000206000002010B5DC21054800F099
:101860004EFC4FF47A7000F039FEA021014800F0E0
:1018700046FC10BD000800407047000010B5012173
:101880000148FFF7B9FE10BD0008014010B5012165
:101890000148FFF7B3FE10BD0008014010B500F08D
:1018A00001F810BD0CB5002001900090334800688D
:1018B00040F480303149086000BF3048006800F4CF
:1018C000003000900198401C0190009818B90198D0
:1018D000B0F5A06FF1D12948006800F4003010B1D4
:1018E0000120009001E0002000900098012843D1E1
:1018F0002348006840F0100021490860084600684D
:1019000020F0030008600846006840F0020008600C
:101910001A484068194948600846406848600846C7
:10192000406840F4806048600846406820F47C10BD
:1019300048600846406840F4E8104860084600687F
:1019400040F08070086000BF0C48006800F0007034
:101950000028F9D00948406820F003000749486092
:101960000846406840F00200486000BF03484068F5
:1019700000F00C000828F9D10CBD00000010024056
:101980000020024010B586B04FF48040144B421046
:101990001946009001A800F096F8124801A91EC946
:1019A0001EC0A021104800F0AAFB01210420FFF76F
:1019B000D9FE28208DF817004FF40060ADF8140010
:1019C00005A90A48FFF784FD4FF48050ADF81400D4
:1019D00005A90648FFF77CFD00F00AF806B010BD27
:1019E000001001406800002000080040000801408D
:1019F00010B54FF480510F48FFF7F5FD00B910BD49
:101A00000D4800F03AF800240DE041F288310A4810
:101A100000F085F84FF480510648FFF7E4FD00B967
:101A200005E0601C84B240F2DC508442EDDB00BF74
:101A300000BFE4E700080140680000202DE9F04104
:101A400004460D461646A1882068FFF7D5FD0027FD
:101A50000FE0A189A068FFF7D1FD304600F050FDEE
:101A6000A189A068FFF7C8FD304600F049FD781C49
:101A700087B2AF42EDDBBDE8F08110B50446A18826
:101A80002068FFF7B9FD10BD2DE9F04104460D4671
:101A90001646A1882068FFF7B1FD00270FE0A18955
:101AA000A068FFF7ABFD304600F02AFDA189A068D1
:101AB000FFF7A2FD304600F023FD781C87B2AF424D
:101AC000EDDBBDE8F0812DE9F04186B007460C461C
:101AD00015461E46DDF8308001211420FFF742FE36
:101AE00010208DF8170003208DF81600ADF8145063
:101AF00005A92046FFF7ECFCADF8148005A9304697
:101B0000FFF7E6FC0194ADF808500396ADF810809D
:101B100001A80FC887E80F0006B0BDE8F08170B5D6
:101B200004460D46A189A068FFF768FD284600F02D
:101B3000E7FCA189A068FFF75FFD284600F0E0FC04
:101B400070BD042808D14FF0E021096941F004017B
:101B50004FF0E022116107E04FF0E021096921F028
:101B600004014FF0E0221161704710B500F05CF8FD
:101B700010BD000008B54FF4A060FFF7B3FDFF20D3
:101B80008DF8000000208DF801008DF80200012082
:101B90008DF803006846FFF76DFD6FF00400FFF756
:101BA000D0FF084800684FF4FA51B0FBF1F04FF055
:101BB000E0214861002088610846006940F0030088
:101BC000086108BD0000002010B51348006840F00F
:101BD00001001149086008464068104908400E4954
:101BE0004860084600680E4908400B4908600846EE
:101BF000006820F4802008600846406820F4FE0059
:101C000048604FF41F008860FFF748FE4FF0006007
:101C10000449086010BD0000001002400000FFF8F9
:101C2000FFFFF6FE08ED00E00448D0E900305A1C42
:101C300040F100000149C1E9002070474800002040
:101C400030B589B005460C4601210846FFF77AFDFC
:101C500001210420FFF786FD18208DF823000320C2
:101C60008DF822000220ADF8200008A91348FFF7E4
:101C70002FFCADF81850ADF814400020ADF81A0054
:101C8000ADF8160005A94FF0804000F03DFA702035
:101C9000ADF804000120ADF806000220ADF80C00FC
:101CA00001A9400700F026F90821C80600F074F9E0
:101CB0000121880700F0A1F809B030BD00080140FB
:101CC00010B50121054800F0A4F828B1012103480E
:101CD00000F090F800F06AFA10BD00000004004027
:101CE0007FB505460C4601210846FFF72BFDADF8F0
:101CF0000850ADF804400020ADF80A00ADF8060029
:101D000001A90E4800F000FA012211460B4800F02C
:101D100091F81D208DF8000000208DF801000320AF
:101D20008DF8020001208DF803006846FFF7A2FC41
:101D30000121024800F061F87FBD0000000400406E
:101D400030B589B005460C4601210420FFF7FAFCA6
:101D500001210820FFF706FD18208DF8230003203D
:101D60008DF822004FF47070ADF8200008A91F48CC
:101D7000FFF7AEFBADF81850ADF814400020ADF8F9
:101D80001A00ADF8160005A9194800F0BDF9702039
:101D9000ADF804000120ADF806000220ADF80C00FB
:101DA00001A9134800F050F80821114800F098F8F4
:101DB00001A90F4800F09EF808210D4800F0ECF84A
:101DC00001A90B4800F0F6F80821094800F042F993
:101DD00001A9074800F048F90821054800F082F9F8
:101DE0000121034800F009F809B030BD000C0140A2
:101DF00000080040CA430282704721B1028842F0C5
:101E00000102028004E002884FF6FE731A4002804D
:101E1000704730B50246002000230024158A05EAE9
:101E20000103958905EA010413B10CB1012000E01A
:101E3000002030BD1AB183890B43838102E083897E
:101E40008B4383817047000070B50024002200237B
:101E5000058C4FF6FE7635400584028C8388048B12
:101E60004FF68F752C40B51E2C400D882C43751EE7
:101E70002A400D892A434D882A43144DA8420BD08D
:101E8000134DA84208D0134DA84205D0124DA842C8
:101E900002D0124DA84213D14FF6F7752A404D8952
:101EA0002A434FF6FB752A408D882A434FF6FF657B
:101EB0002B404FF6FF552B408D892B43CD892B436B
:101EC00083800483CD888586028470BD002C014008
:101ED00000340140004001400044014000480140FE
:101EE0000A460021018B4FF6F77319401143018315
:101EF0007047000070B5002400220023058C4FF6C7
:101F0000EF7635400584028C8388048B48F6FF7594
:101F10002C404FF6FF452C400D884FF6FF7606EA21
:101F200005252C434FF6DF752A400D8906EA051575
:101F30002A434D8806EA05152A43154DA84202D0CA
:101F4000144DA8421DD14FF67F752A404D894FF69A
:101F5000FF7606EA05152A434FF6BF752A408D889D
:101F600006EA05152A434FF6FF352B404FF2FF7561
:101F70002B408D8906EA85052B43CD8906EA850528
:101F80002B4383800483CD880587028470BD0000C5
:101F9000002C0140003401400A460021018B4FF221
:101FA000FF7319404FF6FF7303EA022319430183BD
:101FB0007047000070B5002400220023058C4FF606
:101FC000FF6635400584028C8388848B4FF68F75BD
:101FD0002C404FF6FC752C400D882C434FF6FF55D6
:101FE0002A400D894FF6FF7606EA05252A434D88DB
:101FF00006EA05252A43154DA84202D0144DA842F1
:102000001DD14FF2FF752A404D894FF6FF7606EA43
:1020100005252A434FF6FF352A408D8806EA052517
:102020002A434EF6FF752B404DF6FF752B408D89E8
:1020300006EA05152B43CD8906EA05152B43838057
:102040008483CD888587028470BD0000002C014008
:10205000003401400A460021818B4FF6F773194086
:10206000114381837047000070B5002200230024D3
:10207000058C4EF6FF7635400584038C8488828B70
:1020800048F6FF752A404FF6FF452A400D884FF667
:10209000FF7606EA05252A434DF6FF752B400D898C
:1020A00006EA05352B434D8806EA05352B430B4DD3
:1020B000A84202D00A4DA84208D14BF6FF752C4029
:1020C0008D894FF6FF7606EA85152C43848082833E
:1020D000CD88A0F84050038470BD0000002C014062
:1020E000003401400A460021818B4FF2FF731940F2
:1020F0004FF6FF7303EA02231943818370478186F9
:102100007047018770470000002202881D4B9842EB
:102110000ED01D4B98420BD0B0F1804F08D01B4B16
:10212000984205D01A4B984202D01A4B984204D1DB
:102130004FF68F731A404B881A43174B984207D0BB
:10214000164B984204D04FF6FF431A40CB881A43EF
:1021500002808B8883850B8803850A4B98420BD0BD
:10216000094B984208D00E4B984205D00D4B98422F
:1021700002D00D4B984201D10B7A03860123838252
:1021800070470000002C0140003401400004004072
:1021900000080040000C0040001000400014004007
:1021A00000400140004401400048014070B516481D
:1021B0000078032826DB14480078062822DB124822
:1021C000007809281EDB104800780C2817DA0E4822
:1021D00000780B2816D100220C4B0D4903C900F0E2
:1021E000D9FB044622460B460A48FDF7FBFF0021B7
:1021F000074A1160516000200349087002E0002086
:102200000149087070BD000018000020000008405F
:1022100038000020842D000810B5264800F040F951
:10222000C4B22548008800F40040002841D122486B
:10223000008800F48040F0B10A2C03D000201E4931
:10224000088036E01C48008840F400401A490880A5
:1022500020221A491A48FEF77EF817480088C0F372
:102260000D001849088020211448FEF7B9F8002015
:10227000114908801DE00D2C06D10F48008840F45C
:1022800080400D49088014E00B480088C0F30D0021
:102290000A490C5408480088401C07490880084631
:1022A00000881F2805DD0020088020210348FEF754
:1022B00097F810BD0038014014000020780000207D
:1022C000980000201600002010B540F22551034868
:1022D00000F02AF808B1FFF79FFF10BD0038014059
:1022E00070B504460848008858B1202207492046A6
:1022F000FEF731F804480588002003490880284685
:1023000070BD0020FCE700001600002098000020AF
:1023100021B1828942F40052828104E082894DF623
:10232000FF731A408281704770B502460024002373
:102330000025002040F66A16B14200D100BFC1F36B
:10234000421501F01F03012606FA03F3012D02D105
:102350009689334006E0022D02D1168A334001E00F
:10236000968A33400C12012606FA04F4168834408B
:1023700013B10CB1012000E0002070BDF0B50346A0
:10238000002400260025002040F66A17B94200D13B
:1023900000BF1846C1F3421401F01F06012707FAD7
:1023A00006F5012C01D10C3004E0022C01D11030D3
:1023B00000E014301AB107682F43076002E0076895
:1023C000AF430760F0BD00002DE9F04786B0054639
:1023D0000E460024A24600BFA1460027B08900B1E6
:1023E00000BF2F462C8A4CF6FF700440F08804434F
:1023F0002C82AC894EF6F3100440B0883189084332
:10240000718908430443AC81AC8A4FF6FF40044015
:10241000B0890443AC8201A8FFF7B4F91F48874292
:1024200002D1DDF810A001E0DDF80CA0A88900F4CD
:10243000004040B10AEBCA0000EB0A1031684900C5
:10244000B0FBF1F807E00AEBCA0000EB0A103168B4
:102450008900B0FBF1F86420B8FBF0F0040120091A
:10246000642101FB1089A88900F4004040B13220AA
:1024700000EBC900B0FBF1F000F00700044308E0F6
:10248000322000EB09106421B0FBF1F000F00F00E6
:1024900004432C8106B0BDE8F087000000380140FD
:1024A00001468888C0F30800704700BFFEE7490076
:1024B00050EAC12018BF04204A0D18BF40F00100A7
:1024C00040F2FF72B2EB515F08BF40F002000128FA
:1024D00008BF0520704700BF7047000030B5074BAC
:1024E00006CB00BF054BD3E90043651A63EB02033B
:1024F0002D1A73F10003F5D330BD00004800002011
:102500002DE9F0431E4B1B684FF4FA54B3FBF4F46F
:1025100000231C4D4FF47A7CC0CDA6FB0C5907FB61
:102520000C9706FB037766197B414FF0E024A46902
:10253000311B63F1000200BF114B1B684FF4FA54CA
:10254000B3FBF4F300240F4DD5E900754FF47A7C0A
:10255000A7FB0C6905FB0C9507FB04559E196C4104
:102560004FF0E0239B69F31A64F100045D1A64EBF9
:1025700002042D1A74F10004DED3BDE8F0830000DC
:10258000000000204800002000BF054A128802F029
:102590004002002AF9D0C2B2014B1B1D1A807047BD
:1025A0000038014088B0FFF7E5FA4FF4E13000F061
:1025B00089F940F2CF2140F2CF70FFF7C1FBFEF75F
:1025C00045FFFFF7DFF9FEF75BFFE9E06846FFF73D
:1025D00087FE0746002F6EDD002472A16846FDF7D6
:1025E00069FE0446002C67D006226FA12046FDF745
:1025F00067FE00286CD100256AA1FDF75BFE054649
:10260000002D64D004226AA12846FDF759FED0B9F6
:10261000002664A10020FDF74DFE064696B1042277
:1026200065A13046FDF74CFE18B965A0FDF7DAFD4F
:1026300008E0052268A13046FDF742FE10B968A007
:10264000FDF7D0FD43E005226BA12846FDF738FEDB
:10265000D0B9002653A10020FDF72CFE064696B106
:10266000042255A13046FDF72BFE18B964A0FDF7F2
:10267000B9FD08E0052258A13046FDF721FE10B94A
:1026800065A0FDF7AFFD22E0062269A12846FDF70F
:1026900017FEE0B9002643A10020FDF70BFE064619
:1026A000A6B1042244A13046FDF70AFE28B962A073
:1026B000FDF798FD0AE072E070E0052246A1304681
:1026C000FDF7FEFD10B962A0FDF78CFD00BF65E0CF
:1026D000082265A12046FDF7F3FD08BB002531A1C6
:1026E0000020FDF7E7FD0546CDB1072261A1284690
:1026F000FDF7E6FD10B9FEF7BAFE10E008225FA173
:102700002846FDF7DDFD10B9FEF7A8FE07E004221C
:102710005DA12846FDF7D4FD08B9FEF7D1FE3DE0E6
:1027200006225BA12046FDF7CBFD002836D100250F
:102730001CA1FDF7BFFD0546002D2ED0072256A196
:102740002846FDF7BDFD28B9FFF786F854A0FDF730
:1027500049FD22E0072255A12846FDF7B1FD28B921
:10276000FEF760FF4EA0FDF73DFD16E0072251A1E8
:102770002846FDF7A5FD28B9FEF744FF48A0FDF760
:1027800031FD0AE005224DA12846FDF799FD20B94B
:10279000FEF7B2FF42A0FDF725FD00BF00BF00BF5E
:1027A00014E700003A000000426166666C650000B4
:1027B0004C656674000000004F70656E00000000FC
:1027C000426166666C653A4C6566743A4F70656E38
:1027D00065640D0A00000000436C6F736500000023
:1027E000426166666C653A4C6566743A436C6F7319
:1027F00065640D0A000000005269676874000000FB
:10280000426166666C653A52696768743A4F7065F2
:102810006E65640D0A000000426166666C653A529E
:10282000696768743A436C6F7365640D0A00000051
:102830004D6964646C650000426166666C653A4D82
:102840006964646C653A4F70656E65640D0A0000DA
:10285000426166666C653A4D6964646C653A436CC6
:102860006F7365640D0A0000436F6E7665796F7251
:1028700000000000466F7277617264004261636B12
:10288000776172640000000053746F7000000000F4
:10289000536C69646572000052656379636C65000E
:1028A000536C696465723A4F4B0D0A004B6974634F
:1028B00068656E004861726D66756C004F7468657E
:1028C0007200000010B586B00446012144F20400F5
:1028D000FEF748FF4FF40070ADF8140003208DF8A8
:1028E000160018208DF8170005A91D48FEF7F0FD09
:1028F0004FF48060ADF8140004208DF8170005A98E
:102900001748FEF7E5FD25208DF8000000208DF822
:10291000010003208DF8020001208DF803006846B5
:10292000FEF7A8FE01940020ADF80800ADF80A00FB
:10293000ADF80C00ADF810000C20ADF80E0001A9A8
:102940000848FFF741FD012240F225510548FFF7F5
:1029500015FD01210348FFF7DBFC06B010BD0000A8
:10296000000801400038014010B500290AD008785D
:10297000002807D005487844FEF75EF9002801D00A
:10298000002010BD0248784410BD0000460400003D
:102990003E0400002DE9C04130B4DFF8A0C23CEA9B
:1029A000111418BF3CEA131400F0EC8081EA03050F
:1029B0001CEA111444EAD57418BF1CEA131500F080
:1029C000C780A4EB05044FF0004545EAC12145EA64
:1029D000C32341EA505143EA525304F17F749942B0
:1029E00004F500344FEAC0204FEAC22208BF9042EB
:1029F00000F09C804FEA13650FF24016765D4FEAB7
:102A0000134506FB05F7C7F1807706FB07F74FEA8A
:102A1000D737A7FB03687642C8F58038A7FB06CEF8
:102A200038BFA8F1010807FB08E64FF0000EA6FB2F
:102A3000028CE6FB03CEDCF1000CCEF1004E38BF79
:102A4000AEF1010EA6FB0C584FF000074FF0000549
:102A5000E6FB0E87A1FB08C6A0FB07CE16EB0E0611
:102A600045F10005E1FB076515F1E04E7EBFA4F5D9
:102A700080345FEA46066D4116F1800745F1000596
:102A80004FEA17274FEA066647EA0567A6F1DE46D2
:102A9000B6F1805F4FEA15251FD9384624F0010CA6
:102AA00005EBC471BCF1FE6F01EB0C1102D8F0BC58
:102AB000BDE8008124425CBF01F5801E9EEAC47F10
:102AC00002D4F0BCBDE80081244238D4F0BCA1F1AE
:102AD000C041BDE8004100F003B94FEAD22242EA0A
:102AE00043524FEAD323A7FB02864FEAD02040EAA5
:102AF000415007FB03661EEA0E0F4FEAD12105FB8A
:102B0000026658BFA6EB0056B6EB00564FEA520ECF
:102B10004EEAC37E18EB0E0E56EB530EBDD518EBE6
:102B200002085E417F1C55F10005B6E74FF48015A1
:102B30004FF000074FF000064FF00008ADE7F0BC83
:102B40004FF0000001F1C04101F00041BDE80081FB
:102B500011EA0C1F0CEA131500D00CE013EA0C1F4D
:102B600000F025804FF00000F0BC81EA030101F085
:102B70000041BDE80081F0BCBDE8004181EA0301ED
:102B800000F0AEB8F0BCBDE8004170B500F05AF8F6
:102B9000097EFC3E00F007B881EA03014FF0000017
:102BA00001F00041704781EA030100F099B8F0BCE0
:102BB000BDE800414FF0000021497047FFFDFBF9DF
:102BC000F7F5F4F2F0EEEDEBE9E8E6E4E3E1E0DE60
:102BD000DDDBDAD8D7D5D4D3D1D0CFCDCCCBCAC8D2
:102BE000C7C6C5C4C2C1C0BFBEBDBCBBBAB9B8B7F9
:102BF000B6B5B4B3B2B1B0AFAEADACABAAA9A8A8EC
:102C0000A7A6A5A4A3A3A2A1A09F9F9E9D9C9C9BB9
:102C10009A99999897979695959493939291919064
:102C20008F8F8E8E8D8C8C8B8B8A898988888787F5
:102C30008685858484838382828181800000FF076A
:102C40000000F87F0EF1020E2EF0030E5EF8046B0A
:102C5000364205D4012A43EB030515F5001F12D8AF
:102C6000012841EB010C1CF5001F0CD80ED14FEAD6
:102C7000D17C15F5001F0CEB4C0C0CF1020C08BFBD
:102C80004CEBD37C04E04FF0080C01E04FEAD37C1E
:102C90000CEB4C0526FA05F606F00706B6F1040C17
:102CA00006D20EEB860CBDE870404CF0010C60477C
:102CB000DFE80CF0090B02024FF000414FF000007A
:102CC000A1F5002170BD19461046012851EB010401
:102CD00018BFD4F5001484BF002001F0004170BD7E
:102CE0000808A0F500114FEA31017047FDF777BCE5
:102CF00002400000000000A00000000005400000AD
:102D0000000000C8000000000C4000000000409CD3
:102D100000000000194000000020BCBE00000000C0
:102D200034400000BFC91B8E00000004B540000005
:102D3000504BCFD06607E2CF010000006C4100008D
:102D40003E8251AADFEEA73401000000D942000004
:102D5000DCB5A0E23A301F97FFFFFFFFB44500004B
:102D6000FD25A0C8E9A3C14FFFFFFFFFFF3F000003
:102D70000000008000000000FF3F00000000008015
:102D80000000000043617061636974793A4F7468B0
:102D900065723A256C660D0A00000000D82D000807
:102DA000000000206800000028010008402E0008F4
:102DB00068000020B0060000440100081C0000006C
:102DC00043000000F8FFFFFF0C0000000E000000B1
:102DD0000F0000002E00000000A24A0400000000C6
:102DE00000000000010203040607080900000000BB
:102DF00000000000000000000000000000000000D3
:102E000000000000000000000000000000000000C2
:102E100000000000000000000000000000000000B2
:102E20000000000000000000000000000102030498
:102E30000102030406070809020406080000000056
:04000005080000ED02
:00000001FF
